:1000000045C0000060C000005EC000005CC0000091
:100010005AC0000058C0000056C0000054C0000084
:1000200052C0000050C000004EC000004CC0000094
:100030004AC0000048C0000046C0000044C00000A4
:1000400043C0000040C000003EC000003CC00000B3
:100050003AC0000038C0000036C0000034C00000C4
:1000600032C0000030C000002EC000002CC00000D4
:100070002AC0000028C0000026C0000024C00000E4
:1000800022C0000020C000001EC0000011241FBEBE
:10009000CFEFD0E1DEBFCDBF11E0A0E0B1E0E6E8F8
:1000A000F2E000E00BBF02C007900D92AA30B1074A
:1000B000D9F721E0AAE0B1E001C01D92AF30B2074C
:1000C000E1F76ED0DEC09CCF1F920F920FB60F9259
:1000D00011240BB60F922F933F934F935F936F931F
:1000E0007F938F939F93AF93BF93EF93FF9380E39F
:1000F00082BF1BBA81E090E000900A0102C0880F25
:10010000991F0A94E2F7809582BB80910B01909130
:100110000C012AE030E0B9014FD0FC01E050FF4F64
:1001200080818BBB80910B0190910C01B90144D06F
:1001300070930C0160930B0180910A018F5F8630F0
:1001400019F080930A0119C010920A0160910D0103
:1001500070910E016F5F7F4F072E000C880B990B7B
:1001600020E432E44FE050E03AD070930E01609307
:100170000D0170930C0160930B01FF91EF91BF9102
:10018000AF919F918F917F916F915F914F913F912F
:100190002F910F900BBE0F900FBE0F901F901895D0
:1001A0008FEF8ABB81BB82BB94E093BF82BF87B7CE
:1001B000816087BF7894FFCF97FB072E16F40094D9
:1001C00006D077FD08D027D007FC05D03EF49095E7
:1001D00081959F4F0895709561957F4F0895052EE5
:1001E00097FB16F400940FD057FD05D028D007FCDC
:1001F00002D046F408C050954095309521953F4F68
:100200004F4F5F4F089590958095709561957F4F02
:100210008F4F9F4F0895AA1BBB1B51E107C0AA1F18
:10022000BB1FA617B70710F0A61BB70B881F991F97
:100230005A95A9F780959095BC01CD010895A1E24A
:100240001A2EAA1BBB1BFD010DC0AA1FBB1FEE1F50
:10025000FF1FA217B307E407F50720F0A21BB30B9B
:10026000E40BF50B661F771F881F991F1A9469F717
:1002700060957095809590959B01AC01BD01CF0173
:060280000895F894FFCF81
:0A0286003F065B4F666D7D077F6F3A
:00000001FF
