:1000000045C0000060C000005EC000005CC0000091
:100010005AC0000058C0000056C0000054C0000084
:1000200052C0000050C000004EC000004CC0000094
:100030004AC0000048C0000046C0000044C00000A4
:1000400043C0000040C000003EC000003CC00000B3
:100050003AC0000038C0000036C0000034C00000C4
:1000600032C0000030C000002EC000002CC00000D4
:100070002AC0000028C0000026C0000024C00000E4
:1000800022C0000020C000001EC0000011241FBEBE
:10009000CFEFD0E1DEBFCDBF11E0A0E0B1E0E6EAF6
:1000A000F2E000E00BBF02C007900D92AA30B1074A
:1000B000D9F721E0AAE0B1E001C01D92A331B20757
:1000C000E1F795D0EEC09CCF1F920F920FB60F9222
:1000D00011240BB60F92CF92DF92EF92FF922F93E3
:1000E0003F934F935F936F937F938F939F93AF93C0
:1000F000BF93EF93FF9380E382BF1BBA81E090E050
:1001000000900A0102C0880F991F0A94E2F78095B7
:1001100082BB60910F01709110018091110190914B
:1001200012010F2EFAE0CF2ED12CE12CF12CF02D64
:10013000A701960178D0FB01E050FF4F80818BBB77
:1001400060910F0170911001809111019091120145
:10015000A701960168D020930F01309310014093BE
:1001600011015093120180910A018F5F863019F0BE
:1001700080930A0125C010920A0180910B01909191
:100180000C01A0910D01B0910E01BC01CD016F5F7A
:100190007F4F8F4F9F4F20E432E44FE050E043D039
:1001A00060930B0170930C0180930D0190930E01ED
:1001B00060930F01709310018093110190931201CD
:1001C000FF91EF91BF91AF919F918F917F916F912F
:1001D0005F914F913F912F91FF90EF90DF90CF90E3
:1001E0000F900BBE0F900FBE0F901F9018958FEFC2
:1001F0008ABB81BB82BB40910B0150910C01609185
:100200000D0170910E0140930F0150931001609306
:1002100011017093120194E093BF82BF87B7816090
:1002200087BF7894FFCF052E97FB16F400940FD06C
:1002300057FD05D014D007FC02D046F408C05095F5
:100240004095309521953F4F4F4F5F4F08959095C2
:100250008095709561957F4F8F4F9F4F0895A1E2D4
:100260001A2EAA1BBB1BFD010DC0AA1FBB1FEE1F30
:10027000FF1FA217B307E407F50720F0A21BB30B7B
:10028000E40BF50B661F771F881F991F1A9469F7F7
:1002900060957095809590959B01AC01BD01CF0153
:0602A0000895F894FFCF61
:0A02A6003F065B4F666D7D077F6F1A
:00000001FF
